:020000040000fa
:080000000002040000000000f2
:020000040000fa
:04000800e002000012
:020000040000fa
:04000c00e00200000e
:020000040000fa
:04001000e00200000a
:020000040000fa
:04001400e002000006
:020000040000fa
:04001800e002000002
:020000040000fa
:04001c00e0020000fe
:020000040000fa
:04002000e0020000fa
:020000040000fa
:04002400e0020000f6
:020000040000fa
:04002800e0020000f2
:020000040000fa
:04002c00e0020000ee
:020000040000fa
:04003000e0020000ea
:020000040000fa
:04003400e0020000e6
:020000040000fa
:04003800e0020000e2
:020000040000fa
:04003c00e0020000de
:020000040000fa
:04004000e0020000da
:020000040000fa
:04004400e0020000d6
:020000040000fa
:04004800e0020000d2
:020000040000fa
:04004c00e0020000ce
:020000040000fa
:04005000e0020000ca
:020000040000fa
:04005400e0020000c6
:020000040000fa
:04005800e0020000c2
:020000040000fa
:04005c00e0020000be
:020000040000fa
:04006000e0020000ba
:020000040000fa
:04006400e0020000b6
:020000040000fa
:04006800e0020000b2
:020000040000fa
:04006c00e0020000ae
:020000040000fa
:04007000e0020000aa
:020000040000fa
:04007400e0020000a6
:020000040000fa
:04007800e0020000a2
:020000040000fa
:04007c00e00200009e
:020000040000fa
:04008000e00200009a
:020000040000fa
:04008400e002000096
:020000040000fa
:04008800e002000092
:020000040000fa
:04008c00e00200008e
:020000040000fa
:04009000e00200008a
:020000040000fa
:04009400e002000086
:020000040000fa
:04009800e002000082
:020000040000fa
:04009c00e00200007e
:020000040000fa
:0400a000e00200007a
:020000040000fa
:0400a400e002000076
:020000040000fa
:0400a800e002000072
:020000040000fa
:0400ac00e00200006e
:020000040000fa
:0400b000e00200006a
:020000040000fa
:0400b400e002000066
:020000040000fa
:0400b800e002000062
:020000040000fa
:0400bc00e00200005e
:020000040000fa
:0400c000e00200005a
:020000040000fa
:0400c400e002000056
:020000040000fa
:0400c800e002000052
:020000040000fa
:0400cc00e00200004e
:020000040000fa
:0400d000e00200004a
:020000040000fa
:0400d400e002000046
:020000040000fa
:0400d800e002000042
:020000040000fa
:0400dc00e00200003e
:020000040000fa
:0400e000e00200003a
:020000040000fa
:0400e400e002000036
:020000040000fa
:0400e800e002000032
:020000040000fa
:0400ec00e00200002e
:020000040000fa
:0400f000e00200002a
:020000040000fa
:0400f400e002000026
:020000040000fa
:0400f800e002000022
:020000040000fa
:0400fc00e00200001e
:020000040000fa
:04010000e002000019
:020000040000fa
:04010400e002000015
:020000040000fa
:04010800e002000011
:020000040000fa
:04010c00e00200000d
:020000040000fa
:04011000e002000009
:020000040000fa
:04011400e002000005
:020000040000fa
:04011800e002000001
:020000040000fa
:04011c00e0020000fd
:020000040000fa
:04012000e0020000f9
:020000040000fa
:04012400e0020000f5
:020000040000fa
:04012800e0020000f1
:020000040000fa
:04012c00e0020000ed
:020000040000fa
:04013000e0020000e9
:020000040000fa
:04013400e0020000e5
:020000040000fa
:04013800e0020000e1
:020000040000fa
:04013c00e0020000dd
:020000040000fa
:04014000e0020000d9
:020000040000fa
:04014400e0020000d5
:020000040000fa
:04014800e0020000d1
:020000040000fa
:04014c00e0020000cd
:020000040000fa
:04015000e0020000c9
:020000040000fa
:04015400e0020000c5
:020000040000fa
:04015800e0020000c1
:020000040000fa
:04015c00e0020000bd
:020000040000fa
:04016000e0020000b9
:020000040000fa
:04016400e0020000b5
:020000040000fa
:04016800e0020000b1
:020000040000fa
:04016c00e0020000ad
:020000040000fa
:04017000e0020000a9
:020000040000fa
:04017400e0020000a5
:020000040000fa
:04017800e0020000a1
:020000040000fa
:04017c00e00200009d
:020000040000fa
:04018000e002000099
:020000040000fa
:04018400e002000095
:020000040000fa
:04018800e002000091
:020000040000fa
:04018c00e00200008d
:020000040000fa
:04019000e002000089
:020000040000fa
:04019400e002000085
:020000040000fa
:04019800e002000081
:020000040000fa
:04019c00e00200007d
:020000040000fa
:0401a000e002000079
:020000040000fa
:0401a400e002000075
:020000040000fa
:0401a800e002000071
:020000040000fa
:0401ac00e00200006d
:020000040000fa
:0401b000e002000069
:020000040000fa
:0401b400e002000065
:020000040000fa
:0401b800e002000061
:020000040000fa
:0401bc00e00200005d
:020000040000fa
:0401c000e002000059
:020000040000fa
:0401c400e002000055
:020000040000fa
:0401c800e002000051
:020000040000fa
:0401cc00e00200004d
:020000040000fa
:0401d000e002000049
:020000040000fa
:0401d400e002000045
:020000040000fa
:0401d800e002000041
:020000040000fa
:0401dc00e00200003d
:020000040000fa
:0401e000e002000039
:020000040000fa
:0401e400e002000035
:020000040000fa
:0401e800e002000031
:020000040000fa
:0401ec00e00200002d
:020000040000fa
:0401f000e002000029
:020000040000fa
:0401f400e002000025
:020000040000fa
:0401f800e002000021
:020000040000fa
:0401fc00e00200001d
:020000040000fa
:04020000e002000018
:020000040000fa
:04020400e002000014
:020000040000fa
:04020800e002000010
:020000040000fa
:04020c00e00200000c
:020000040000fa
:04021000e002000008
:020000040000fa
:04021400e002000004
:020000040000fa
:04021800e002000000
:020000040000fa
:04021c00e0020000fc
:020000040000fa
:04022000e0020000f8
:020000040000fa
:04022400e0020000f4
:020000040000fa
:04022800e0020000f0
:020000040000fa
:04022c00e0020000ec
:020000040000fa
:04023000e0020000e8
:020000040000fa
:04023400e0020000e4
:020000040000fa
:04023800e0020000e0
:020000040000fa
:04023c00e0020000dc
:020000040000fa
:04024000e0020000d8
:020000040000fa
:04024400e0020000d4
:020000040000fa
:04024800e0020000d0
:020000040000fa
:04024c00e0020000cc
:020000040000fa
:04025000e0020000c8
:020000040000fa
:04025400e0020000c4
:020000040000fa
:04025800e0020000c0
:020000040000fa
:04025c00e0020000bc
:020000040000fa
:04026000e0020000b8
:020000040000fa
:04026400e0020000b4
:020000040000fa
:04026800e0020000b0
:020000040000fa
:04026c00e0020000ac
:020000040000fa
:04027000e0020000a8
:020000040000fa
:04027400e0020000a4
:020000040000fa
:04027800e0020000a0
:020000040000fa
:04027c00e00200009c
:020000040000fa
:04028000e002000098
:020000040000fa
:100400000f0021000eff24000e01880000000000f4
:10041000000020000000e000020032000001200087
:10042000200288000c000700c05a200001002000b4
:100430000f000700000020000000e0000200320072
:100440000000020000000000300502000000000073
:100450000040da000000fe00001e20000000e00066
:1004600002003200002020009001880000000600f9
:10047000a1028800800078000000eb001a0037001d
:10048000e280400054a0b4009101ba00e280400034
:1004900054a0b4009102ba00e280400054a0b4001d
:1004a0000002eb00472bde00f507b200a601880032
:1004b000602ce10008003a000049eb000201e8006e
:1004c000020039003420ec0002f0a0008301e900b2
:1004d000f9ff3e00040037006128e100010032000e
:1004e0000082eb000b00070011c3ba001101ba0033
:1004f0000604e00003003a000200e000e0ff3a00da
:1005000000000600f607b200a6028800820078000c
:10051000f5ff370004d0a300e20f49001c003900aa
:10052000810278003549ba000201e8000200390072
:100530003420ec0002f0a0008301e9000f0032003b
:100540002549ba000201e800020039003420ec001d
:1005500002f0a0008301e900080032000400e0007e
:100560000600320015c9ba000201e8000200390095
:100570003420ec0002f0a0008301e9008180e80053
:1005800054a0b4000300e000e2ff3a0000000600bf
:100590009102ba00055978008301e900f7ff3200a3
:1005a000c82ade00055978008301e900f3ff320014
:1005b0000400e000f1ff320011d9ba00eeff37006d
:0805c0000040da000000fe001b
:020000040000fa
:1005c800000000000000000000000000005f0000c4
:1005d80000000000000700000007000000140000f1
:1005e8007f1400007f140000242a00007f2a0000e6
:1005f800122300001308000064620000364900005e
:100608005522000050000000050300000000000013
:10061800001c0000224100000000000041220000f0
:100628001c000000140800003e0800001408000028
:10063800083e0000080800000050000030000000dc
:10064800000800000808000008080000006000001a
:1006580060000000002000001008000004020000f4
:100668003e510000494500003e000000427f000066
:10067800400000004261000051490000462100008e
:10068800414500004b31000018140000127f0000a3
:100698001027000045450000453900003c4a00008d
:1006a80049490000300100007109000005030000fd
:1006b8003649000049490000360600004949000053
:1006c800291e00000036000036000000000000006f
:1006d8005636000000000000081400002241000007
:1006e800001400001414000014140000004100005d
:1006f8002214000008020000015100000906000051
:1007080032490000794100003e7e000011110000ce
:10071800117e00007f49000049490000363e000074
:1007280041410000412200007f41000041220000b9
:100738001c7f000049490000494100007f09000072
:1007480009090000013e000041490000497a000003
:100758007f080000080800007f000000417f0000bb
:100768004100000020400000413f0000017f0000e0
:1007780008140000224100007f40000040400000b3
:10078800407f0000020c0000027f00007f04000090
:10079800081000007f3e000041410000413e00007b
:1007a8007f09000009090000063e000041510000d1
:1007b800215e00007f09000019290000464600005c
:1007c8004949000049310000010100007f01000093
:1007d800013f000040400000403f00001f20000093
:1007e800402000001f3f000040380000403f00004c
:1007f800631400000814000063070000087000007c
:10080800080700006151000049450000430000004e
:100818007f410000410000000204000008100000b1
:1008280020000000414100007f0000000402000099
:100838000102000004400000404000004040000069
:1008480000010000020400000020000054540000d1
:10085800547800007f480000444400003838000005
:10086800444400004420000038440000444800008c
:100878007f3800005454000054180000087e00001f
:1008880009010000020c000052520000523e000014
:100898007f0800000404000078000000447d000088
:1008a8004000000020400000443d0000007f0000a0
:1008b8001028000044000000004100007f400000b4
:1008c800007c000004180000047800007c08000088
:1008d8000404000078380000444400004438000054
:1008e8007c14000014140000080800001414000010
:1008f800187c00007c080000040400000848000080
:100908005454000054200000043f000044400000fc
:10091800203c000040400000207c00001c2000001b
:10092800402000001c3c000040300000403c00001b
:100938004428000010280000440c0000505000001b
:10094800503c000044640000544c00004400000087
:100958000836000041000000000000007f00000091
:1009680000000000413600000800000010080000e8
:100978000810000008780000464100004678000092
:020000040000fa
:100988000200fa00004f780011479800154ea900a0
:100998009e40780061c060000080fb00610060003c
:1009a8004c00dd00a2708000f1ff2e008100610084
:1009b80001007000a07088001e4090000080fb00bd
:1009c80040128800000000000012800061006000f2
:1009d8000000e000fcff320000000000154ea800f7
:1009e8000080fa00000006000400fa002047980082
:1009f8008040eb0010c0b300e1ff07000000eb00ef
:100a0800000f78000c0037002e4090000000fb001b
:100a18000002b100e500b9001e004000412e280088
:100a280000804000104078008040780010c0b3007b
:100a3800d3ff07001e0fe8001e007800e40f5000e7
:100a4800f1ff34008040eb0010c0b300ccff07007a
:100a58000080fa00000006000000fa00114ea9000c
:100a6800116ea900118ea90042a2a80010128000e0
:100a78000000a0000010a0001012880010128000d2
:100a88000020a0000030a0000040a0001012880044
:100a98004342a9004322a9004302a80042c2a90078
:100aa80041e2a800156ea900156ea80011c2b30096
:100ab8000040eb00b2ff070001cbb3000040eb00a1
:100ac800afff070041c0b3000040eb00acff0700d8
:100ad80041c1b3000040eb00a9ff070001c2b30009
:100ae8000040eb00a6ff0700c1c0b3000040eb00c8
:100af800a3ff070080c4b300bbff070050c6b300c4
:100b0800b9ff0700c0c6b300b7ff0700c0c6b300ef
:100b1800b5ff0700f0c6b300b3ff070000c2b3007b
:100b2800b1ff070070c5b300afff0700f0c6b30000
:100b3800adff070020c7b300abff0700c0c6b30076
:100b4800a9ff070040c6b300a7ff0700ffff370053
:020000040000fa
:040b5800ae05800066
:020000040000fa
:040b5c000000000095
:00000001FF
